{
  "transactions": [
    {
      "hash": "0x026db53ef0149f0afb2fd9e1e0a88a15c6f08080d74a0443cd93a874e788d443",
      "transactionType": "CALL",
      "contractName": null,
      "contractAddress": "0x3208722b0b29469f31fa8cca5810ab08d117388b",
      "function": "mintNft(string)",
      "arguments": [
        "ipfs://QmdeL6H4DWkk6cB9piDD73tirropWnJEX2bkCiEvQ33asj"
      ],
      "transaction": {
        "from": "0xdbc29e79b2b3b62c015ab598d0bb86681313d90f",
        "to": "0x3208722b0b29469f31fa8cca5810ab08d117388b",
        "gas": "0x2a74b",
        "value": "0x0",
        "input": "0xda86f4a900000000000000000000000000000000000000000000000000000000000000200000000000000000000000000000000000000000000000000000000000000035697066733a2f2f516d64654c36483444576b6b36634239706944443733746972726f70576e4a455832626b4369457651333361736a0000000000000000000000",
        "nonce": "0x3e",
        "chainId": "0xaa36a7"
      },
      "additionalContracts": [],
      "isFixedGasLimit": false
    }
  ],
  "receipts": [
    {
      "status": "0x1",
      "cumulativeGasUsed": "0x143bf9d",
      "logs": [
        {
          "address": "0x3208722b0b29469f31fa8cca5810ab08d117388b",
          "topics": [
            "0xddf252ad1be2c89b69c2b068fc378daa952ba7f163c4a11628f55a4df523b3ef",
            "0x0000000000000000000000000000000000000000000000000000000000000000",
            "0x000000000000000000000000dbc29e79b2b3b62c015ab598d0bb86681313d90f",
            "0x0000000000000000000000000000000000000000000000000000000000000007"
          ],
          "data": "0x",
          "blockHash": "0x6177a8b8d59842f85ddfe77162b41a8398fbba9958d11d9552cf1391dfb81e27",
          "blockNumber": "0x7f7798",
          "blockTimestamp": "0x6829dd78",
          "transactionHash": "0x026db53ef0149f0afb2fd9e1e0a88a15c6f08080d74a0443cd93a874e788d443",
          "transactionIndex": "0xa4",
          "logIndex": "0x19f",
          "removed": false
        }
      ],
      "logsBloom": "0x00000000800000000000000000000000000000000010000000000000000000000000000000000000000000000000000000001000000000000000000000000000100022000000000000000008000000000000000000000000000000000000000000000000020000000000000000000800000000000000000000000010000000000000000000000000000000000000000000000000000000000000000000000000000800000000000000000000000000000000000000000000000000000000000000000002000000000000000000000000080000000000000000000100000020000000000000000000000000000000000000000000000000000000000000000000",
      "type": "0x2",
      "transactionHash": "0x026db53ef0149f0afb2fd9e1e0a88a15c6f08080d74a0443cd93a874e788d443",
      "transactionIndex": "0xa4",
      "blockHash": "0x6177a8b8d59842f85ddfe77162b41a8398fbba9958d11d9552cf1391dfb81e27",
      "blockNumber": "0x7f7798",
      "gasUsed": "0x1ebcd",
      "effectiveGasPrice": "0xf45f7",
      "from": "0xdbc29e79b2b3b62c015ab598d0bb86681313d90f",
      "to": "0x3208722b0b29469f31fa8cca5810ab08d117388b",
      "contractAddress": null
    }
  ],
  "libraries": [],
  "pending": [],
  "returns": {},
  "timestamp": 1747574136,
  "chain": 11155111,
  "commit": "f063a74"
}