{
  "transactions": [
    {
      "hash": "0xd7932b268ef76d4ae13453d39044e3b08877b6a3efb6dbccb2221ec7987f52c8",
      "transactionType": "CALL",
      "contractName": null,
      "contractAddress": "0x3208722b0b29469f31fa8cca5810ab08d117388b",
      "function": "mintNft(string)",
      "arguments": [
        "https://ipfs.io/ipfs/QmUJ2qNuXbsVoVmi9jEiMv4sQR4jkMEU3QdtFxnncP7aWC/"
      ],
      "transaction": {
        "from": "0xdbc29e79b2b3b62c015ab598d0bb86681313d90f",
        "to": "0x3208722b0b29469f31fa8cca5810ab08d117388b",
        "gas": "0x34fd8",
        "value": "0x0",
        "input": "0xda86f4a90000000000000000000000000000000000000000000000000000000000000020000000000000000000000000000000000000000000000000000000000000004468747470733a2f2f697066732e696f2f697066732f516d554a32714e75586273566f566d69396a45694d7634735152346a6b4d45553351647446786e6e6350376157432f00000000000000000000000000000000000000000000000000000000",
        "nonce": "0x38",
        "chainId": "0xaa36a7"
      },
      "additionalContracts": [],
      "isFixedGasLimit": false
    }
  ],
  "receipts": [
    {
      "status": "0x1",
      "cumulativeGasUsed": "0x1f6862b",
      "logs": [
        {
          "address": "0x3208722b0b29469f31fa8cca5810ab08d117388b",
          "topics": [
            "0xddf252ad1be2c89b69c2b068fc378daa952ba7f163c4a11628f55a4df523b3ef",
            "0x0000000000000000000000000000000000000000000000000000000000000000",
            "0x000000000000000000000000dbc29e79b2b3b62c015ab598d0bb86681313d90f",
            "0x0000000000000000000000000000000000000000000000000000000000000001"
          ],
          "data": "0x",
          "blockHash": "0x86cb1798ee674cb518175dbfb3cfe525640a929e84ce73cb3c711c140b00a14b",
          "blockNumber": "0x7f5c80",
          "blockTimestamp": "0x68289774",
          "transactionHash": "0xd7932b268ef76d4ae13453d39044e3b08877b6a3efb6dbccb2221ec7987f52c8",
          "transactionIndex": "0xef",
          "logIndex": "0x276",
          "removed": false
        }
      ],
      "logsBloom": "0x00000000800000000000000000000000000000000010000000000000000000000000000000000000000000000000000000000000000000000000000000040000100002000000000000000008000000000000000000040000000000000000000000000000020000000000000000000800000000000000000000000010000000000000000000000000000000000000000000000000000000000000000000000000000800000000000000000000000000000000000000000000000000000000000000000002000000000000000000000000080000000000000000000000000060000000000000000000000000000000000000000000000000000000000000000000",
      "type": "0x2",
      "transactionHash": "0xd7932b268ef76d4ae13453d39044e3b08877b6a3efb6dbccb2221ec7987f52c8",
      "transactionIndex": "0xef",
      "blockHash": "0x86cb1798ee674cb518175dbfb3cfe525640a929e84ce73cb3c711c140b00a14b",
      "blockNumber": "0x7f5c80",
      "gasUsed": "0x243b9",
      "effectiveGasPrice": "0x1c767a09f",
      "from": "0xdbc29e79b2b3b62c015ab598d0bb86681313d90f",
      "to": "0x3208722b0b29469f31fa8cca5810ab08d117388b",
      "contractAddress": null
    }
  ],
  "libraries": [],
  "pending": [],
  "returns": {},
  "timestamp": 1747490678,
  "chain": 11155111,
  "commit": "5a65e96"
}