{
  "transactions": [
    {
      "hash": "0xfed217a1bf5c86beaa50c10fb76842bebfdff67e37d180918e986e7b2911648e",
      "transactionType": "CALL",
      "contractName": null,
      "contractAddress": "0x3208722b0b29469f31fa8cca5810ab08d117388b",
      "function": "mintNft(string)",
      "arguments": [
        "ipfs://QmdeL6H4DWkk6cB9piDD73tirropWnJEX2bkCiEvQ33asj"
      ],
      "transaction": {
        "from": "0xdbc29e79b2b3b62c015ab598d0bb86681313d90f",
        "to": "0x3208722b0b29469f31fa8cca5810ab08d117388b",
        "gas": "0x2a74b",
        "value": "0x0",
        "input": "0xda86f4a900000000000000000000000000000000000000000000000000000000000000200000000000000000000000000000000000000000000000000000000000000035697066733a2f2f516d64654c36483444576b6b36634239706944443733746972726f70576e4a455832626b4369457651333361736a0000000000000000000000",
        "nonce": "0x3f",
        "chainId": "0xaa36a7"
      },
      "additionalContracts": [],
      "isFixedGasLimit": false
    }
  ],
  "receipts": [
    {
      "status": "0x1",
      "cumulativeGasUsed": "0x2917373",
      "logs": [
        {
          "address": "0x3208722b0b29469f31fa8cca5810ab08d117388b",
          "topics": [
            "0xddf252ad1be2c89b69c2b068fc378daa952ba7f163c4a11628f55a4df523b3ef",
            "0x0000000000000000000000000000000000000000000000000000000000000000",
            "0x000000000000000000000000dbc29e79b2b3b62c015ab598d0bb86681313d90f",
            "0x0000000000000000000000000000000000000000000000000000000000000008"
          ],
          "data": "0x",
          "blockHash": "0x5bda0b2ad9544ebe29586b753d0cf312e51ae1536d76760d35ccb6a13a113a23",
          "blockNumber": "0x7f77b4",
          "blockTimestamp": "0x6829dec8",
          "transactionHash": "0xfed217a1bf5c86beaa50c10fb76842bebfdff67e37d180918e986e7b2911648e",
          "transactionIndex": "0x105",
          "logIndex": "0x363",
          "removed": false
        }
      ],
      "logsBloom": "0x00000000800000000000000000000000000000000010000000000000000000000000000000000000000000000000000000000000000080000000000000000000100002000000000000000008000000000000000000000000000000000000000000000000020000000000000000000800000000000000000000000010000000000080000000000000000000000000000000000000000000000000000000000000000800000000000000000000000000000000000000000000000000000000000040000002000000000000000000000000080000000000000000000000000020000000000000000000000000000000000000000000000000000000000000000000",
      "type": "0x2",
      "transactionHash": "0xfed217a1bf5c86beaa50c10fb76842bebfdff67e37d180918e986e7b2911648e",
      "transactionIndex": "0x105",
      "blockHash": "0x5bda0b2ad9544ebe29586b753d0cf312e51ae1536d76760d35ccb6a13a113a23",
      "blockNumber": "0x7f77b4",
      "gasUsed": "0x1ebcd",
      "effectiveGasPrice": "0xf4b72",
      "from": "0xdbc29e79b2b3b62c015ab598d0bb86681313d90f",
      "to": "0x3208722b0b29469f31fa8cca5810ab08d117388b",
      "contractAddress": null
    }
  ],
  "libraries": [],
  "pending": [],
  "returns": {},
  "timestamp": 1747574474,
  "chain": 11155111,
  "commit": "f063a74"
}