{
  "transactions": [
    {
      "hash": "0xdde66687d5195348e515b3f1d11cf14cb8bdd3987dce8639057acef184129201",
      "transactionType": "CALL",
      "contractName": null,
      "contractAddress": "0x3208722b0b29469f31fa8cca5810ab08d117388b",
      "function": "mintNft(string)",
      "arguments": [
        "ipfs://QmUJ2qNuXbsVoVmi9jEiMv4sQR4jkMEU3QdtFxnncP7aWC"
      ],
      "transaction": {
        "from": "0xdbc29e79b2b3b62c015ab598d0bb86681313d90f",
        "to": "0x3208722b0b29469f31fa8cca5810ab08d117388b",
        "gas": "0x35fd3",
        "value": "0x0",
        "input": "0xda86f4a900000000000000000000000000000000000000000000000000000000000000200000000000000000000000000000000000000000000000000000000000000035697066733a2f2f516d554a32714e75586273566f566d69396a45694d7634735152346a6b4d45553351647446786e6e6350376157430000000000000000000000",
        "nonce": "0x37",
        "chainId": "0xaa36a7"
      },
      "additionalContracts": [],
      "isFixedGasLimit": false
    }
  ],
  "receipts": [
    {
      "status": "0x1",
      "cumulativeGasUsed": "0x18aab12",
      "logs": [
        {
          "address": "0x3208722b0b29469f31fa8cca5810ab08d117388b",
          "topics": [
            "0xddf252ad1be2c89b69c2b068fc378daa952ba7f163c4a11628f55a4df523b3ef",
            "0x0000000000000000000000000000000000000000000000000000000000000000",
            "0x000000000000000000000000dbc29e79b2b3b62c015ab598d0bb86681313d90f",
            "0x0000000000000000000000000000000000000000000000000000000000000000"
          ],
          "data": "0x",
          "blockHash": "0xa785bf7faa2505acae1a057f7b86ab60299a133f3a3f0ed7e5148fdb23d9a639",
          "blockNumber": "0x7f5c3d",
          "blockTimestamp": "0x68289444",
          "transactionHash": "0xdde66687d5195348e515b3f1d11cf14cb8bdd3987dce8639057acef184129201",
          "transactionIndex": "0xc0",
          "logIndex": "0x1d6",
          "removed": false
        }
      ],
      "logsBloom": "0x00000000800000000000000000000000000000000010000000000000000000000000000000000000000000000000000000000000000000000000000000000000100002000000000000000008000000000000000000000000000000000000000000000000020000000000000000000800000000000000000000000010000000000000000000000000000000000000000000000000000000000000000000000000000800000000000000000000000000000000000000000000000000000000000000000002000000000000000000000000080000000000000000000000000020000000000000000000000000000000000000000000000000000000000000000000",
      "type": "0x2",
      "transactionHash": "0xdde66687d5195348e515b3f1d11cf14cb8bdd3987dce8639057acef184129201",
      "transactionIndex": "0xc0",
      "blockHash": "0xa785bf7faa2505acae1a057f7b86ab60299a133f3a3f0ed7e5148fdb23d9a639",
      "blockNumber": "0x7f5c3d",
      "gasUsed": "0x27165",
      "effectiveGasPrice": "0xf965efbe",
      "from": "0xdbc29e79b2b3b62c015ab598d0bb86681313d90f",
      "to": "0x3208722b0b29469f31fa8cca5810ab08d117388b",
      "contractAddress": null
    }
  ],
  "libraries": [],
  "pending": [],
  "returns": {},
  "timestamp": 1747489866,
  "chain": 11155111,
  "commit": "5a65e96"
}