{
  "transactions": [
    {
      "hash": "0x1f446bf48c8f20f725e6ff48f92e267f22251c64f95472273833e6200b7bf6dd",
      "transactionType": "CALL",
      "contractName": null,
      "contractAddress": "0x3208722b0b29469f31fa8cca5810ab08d117388b",
      "function": "mintNft(string)",
      "arguments": [
        "https://bafybeicypjsxrsjpsos7iaksd4h4iy27gevro2vuonb5m3twesmkbsh2ge.ipfs.dweb.link?filename=KayKay.json"
      ],
      "transaction": {
        "from": "0xdbc29e79b2b3b62c015ab598d0bb86681313d90f",
        "to": "0x3208722b0b29469f31fa8cca5810ab08d117388b",
        "gas": "0x39b7a",
        "value": "0x0",
        "input": "0xda86f4a90000000000000000000000000000000000000000000000000000000000000020000000000000000000000000000000000000000000000000000000000000006768747470733a2f2f626166796265696379706a737872736a70736f733769616b736434683469793237676576726f3276756f6e62356d33747765736d6b6273683267652e697066732e647765622e6c696e6b3f66696c656e616d653d4b61794b61792e6a736f6e00000000000000000000000000000000000000000000000000",
        "nonce": "0x3a",
        "chainId": "0xaa36a7"
      },
      "additionalContracts": [],
      "isFixedGasLimit": false
    }
  ],
  "receipts": [
    {
      "status": "0x1",
      "cumulativeGasUsed": "0xe95ad3",
      "logs": [
        {
          "address": "0x3208722b0b29469f31fa8cca5810ab08d117388b",
          "topics": [
            "0xddf252ad1be2c89b69c2b068fc378daa952ba7f163c4a11628f55a4df523b3ef",
            "0x0000000000000000000000000000000000000000000000000000000000000000",
            "0x000000000000000000000000dbc29e79b2b3b62c015ab598d0bb86681313d90f",
            "0x0000000000000000000000000000000000000000000000000000000000000003"
          ],
          "data": "0x",
          "blockHash": "0xaea4a4706c5ae6f95f6c001d95a26ed8dac962c8268a91585242383535635538",
          "blockNumber": "0x7f74f4",
          "blockTimestamp": "0x6829bdbc",
          "transactionHash": "0x1f446bf48c8f20f725e6ff48f92e267f22251c64f95472273833e6200b7bf6dd",
          "transactionIndex": "0x92",
          "logIndex": "0xff",
          "removed": false
        }
      ],
      "logsBloom": "0x00000000800000000000000000000000000000000010000000000000000000000000000000000000000000000000000000000000020000000000000000000000100002000000000000000008000000000000000000000000000000000000000000000000020000000000000000000800000000000000000000000010000000000000000000000000000000000000000000000000000000000000000000000000000800000000000000000000000000000000000000800000000000000000400000000002000000000000000000000000080000000000000000000000000020000000000000000000000000000000000000000000000000000000000000000000",
      "type": "0x2",
      "transactionHash": "0x1f446bf48c8f20f725e6ff48f92e267f22251c64f95472273833e6200b7bf6dd",
      "transactionIndex": "0x92",
      "blockHash": "0xaea4a4706c5ae6f95f6c001d95a26ed8dac962c8268a91585242383535635538",
      "blockNumber": "0x7f74f4",
      "gasUsed": "0x29c95",
      "effectiveGasPrice": "0x16e6de",
      "from": "0xdbc29e79b2b3b62c015ab598d0bb86681313d90f",
      "to": "0x3208722b0b29469f31fa8cca5810ab08d117388b",
      "contractAddress": null
    }
  ],
  "libraries": [],
  "pending": [],
  "returns": {},
  "timestamp": 1747566012,
  "chain": 11155111,
  "commit": "f063a74"
}