{
  "transactions": [
    {
      "hash": "0x73d4d6506769359b61195332624192c68c87224b6fbab3355fa2759bad1a07d9",
      "transactionType": "CALL",
      "contractName": null,
      "contractAddress": "0x3208722b0b29469f31fa8cca5810ab08d117388b",
      "function": "mintNft(string)",
      "arguments": [
        "ipfs://QmUJ2qNuXbsVoVmi9jEiMv4sQR4jkMEU3QdtFxnncP7aWC?filename=KayKay.json"
      ],
      "transaction": {
        "from": "0xdbc29e79b2b3b62c015ab598d0bb86681313d90f",
        "to": "0x3208722b0b29469f31fa8cca5810ab08d117388b",
        "gas": "0x35041",
        "value": "0x0",
        "input": "0xda86f4a90000000000000000000000000000000000000000000000000000000000000020000000000000000000000000000000000000000000000000000000000000004a697066733a2f2f516d554a32714e75586273566f566d69396a45694d7634735152346a6b4d45553351647446786e6e6350376157433f66696c656e616d653d4b61794b61792e6a736f6e00000000000000000000000000000000000000000000",
        "nonce": "0x39",
        "chainId": "0xaa36a7"
      },
      "additionalContracts": [],
      "isFixedGasLimit": false
    }
  ],
  "receipts": [
    {
      "status": "0x1",
      "cumulativeGasUsed": "0xb58126",
      "logs": [
        {
          "address": "0x3208722b0b29469f31fa8cca5810ab08d117388b",
          "topics": [
            "0xddf252ad1be2c89b69c2b068fc378daa952ba7f163c4a11628f55a4df523b3ef",
            "0x0000000000000000000000000000000000000000000000000000000000000000",
            "0x000000000000000000000000dbc29e79b2b3b62c015ab598d0bb86681313d90f",
            "0x0000000000000000000000000000000000000000000000000000000000000002"
          ],
          "data": "0x",
          "blockHash": "0x6078faf03acdc1730bd23f01d201fa65b2bfc1d6f05c1228a2804dd99ecad91a",
          "blockNumber": "0x7f74d9",
          "blockTimestamp": "0x6829bc78",
          "transactionHash": "0x73d4d6506769359b61195332624192c68c87224b6fbab3355fa2759bad1a07d9",
          "transactionIndex": "0x5c",
          "logIndex": "0xad",
          "removed": false
        }
      ],
      "logsBloom": "0x04000000800000000000000000000000000000000010000000000000000000000000000000000000000000000000000000000000000000000000000000000000100002000000000000000008000000000000000000000000000000000000000000000000020000000000000000000800000000000000000000000010000000000000000000000000000000000000000000000000000000000000000000000000000800000000000000000100000000000000000000000000000000000000000000000002000000000000000000000000080000000000000000000000000020000000000000000000000000000000000000000000008000000000000000000000",
      "type": "0x2",
      "transactionHash": "0x73d4d6506769359b61195332624192c68c87224b6fbab3355fa2759bad1a07d9",
      "transactionIndex": "0x5c",
      "blockHash": "0x6078faf03acdc1730bd23f01d201fa65b2bfc1d6f05c1228a2804dd99ecad91a",
      "blockNumber": "0x7f74d9",
      "gasUsed": "0x24401",
      "effectiveGasPrice": "0x1e6b01",
      "from": "0xdbc29e79b2b3b62c015ab598d0bb86681313d90f",
      "to": "0x3208722b0b29469f31fa8cca5810ab08d117388b",
      "contractAddress": null
    }
  ],
  "libraries": [],
  "pending": [],
  "returns": {},
  "timestamp": 1747565690,
  "chain": 11155111,
  "commit": "f063a74"
}