{
  "transactions": [
    {
      "hash": "0x9a05d0983fdadc543eb88f666e1bffb6951d02fd8cdd7f0f95a93cf011fe83ca",
      "transactionType": "CALL",
      "contractName": null,
      "contractAddress": "0x3208722b0b29469f31fa8cca5810ab08d117388b",
      "function": "mintNft(string)",
      "arguments": [
        "ipfs://QmZcXFUxocTX7bfD34pXRkr5Mu9tkTADTroDUAD4jXoUMZ"
      ],
      "transaction": {
        "from": "0xdbc29e79b2b3b62c015ab598d0bb86681313d90f",
        "to": "0x3208722b0b29469f31fa8cca5810ab08d117388b",
        "gas": "0x2a74b",
        "value": "0x0",
        "input": "0xda86f4a900000000000000000000000000000000000000000000000000000000000000200000000000000000000000000000000000000000000000000000000000000035697066733a2f2f516d5a63584655786f6354583762664433347058526b72354d7539746b54414454726f44554144346a586f554d5a0000000000000000000000",
        "nonce": "0x3b",
        "chainId": "0xaa36a7"
      },
      "additionalContracts": [],
      "isFixedGasLimit": false
    }
  ],
  "receipts": [
    {
      "status": "0x1",
      "cumulativeGasUsed": "0x14e002f",
      "logs": [
        {
          "address": "0x3208722b0b29469f31fa8cca5810ab08d117388b",
          "topics": [
            "0xddf252ad1be2c89b69c2b068fc378daa952ba7f163c4a11628f55a4df523b3ef",
            "0x0000000000000000000000000000000000000000000000000000000000000000",
            "0x000000000000000000000000dbc29e79b2b3b62c015ab598d0bb86681313d90f",
            "0x0000000000000000000000000000000000000000000000000000000000000004"
          ],
          "data": "0x",
          "blockHash": "0x985cba2e535818ad93fa3c51a8f8604c5703b4bc35e15cb2e1213b51a3479250",
          "blockNumber": "0x7f75cd",
          "blockTimestamp": "0x6829c7e8",
          "transactionHash": "0x9a05d0983fdadc543eb88f666e1bffb6951d02fd8cdd7f0f95a93cf011fe83ca",
          "transactionIndex": "0xfe",
          "logIndex": "0x142",
          "removed": false
        }
      ],
      "logsBloom": "0x00000000800000000000000000000000000000000010000000000000000000000000000000000000000000000000000000000000000000000000000000000000100002000000000000000008000000000000000000000000000000000000000008000000020000000000000000000800000000000000000000000010000000000000000000000000000000000000000000000000000000000000000000000000000800000000000000000000000000000000000000000000002000000000000000000002000000000000000000000000080000008000000000000000000020000000000000000000000000000000000000000000000000000000000000000000",
      "type": "0x2",
      "transactionHash": "0x9a05d0983fdadc543eb88f666e1bffb6951d02fd8cdd7f0f95a93cf011fe83ca",
      "transactionIndex": "0xfe",
      "blockHash": "0x985cba2e535818ad93fa3c51a8f8604c5703b4bc35e15cb2e1213b51a3479250",
      "blockNumber": "0x7f75cd",
      "gasUsed": "0x1ebcd",
      "effectiveGasPrice": "0xf4a59",
      "from": "0xdbc29e79b2b3b62c015ab598d0bb86681313d90f",
      "to": "0x3208722b0b29469f31fa8cca5810ab08d117388b",
      "contractAddress": null
    }
  ],
  "libraries": [],
  "pending": [],
  "returns": {},
  "timestamp": 1747568622,
  "chain": 11155111,
  "commit": "f063a74"
}